{
  "address": "0x5847BB86C07853f4eD1CC3508E2e2ECb6B8C579b",
  "abi": [
    {
      "inputs": [
        {
          "internalType": "address",
          "name": "nftTokenAddress",
          "type": "address"
        }
      ],
      "stateMutability": "nonpayable",
      "type": "constructor"
    },
    {
      "inputs": [
        {
          "internalType": "bytes32",
          "name": "",
          "type": "bytes32"
        }
      ],
      "name": "InvalidSignature",
      "type": "error"
    },
    {
      "anonymous": false,
      "inputs": [
        {
          "indexed": true,
          "internalType": "address",
          "name": "previousOwner",
          "type": "address"
        },
        {
          "indexed": true,
          "internalType": "address",
          "name": "newOwner",
          "type": "address"
        }
      ],
      "name": "OwnershipTransferred",
      "type": "event"
    },
    {
      "anonymous": false,
      "inputs": [
        {
          "indexed": false,
          "internalType": "address",
          "name": "owner",
          "type": "address"
        },
        {
          "indexed": false,
          "internalType": "uint256",
          "name": "tokenId",
          "type": "uint256"
        }
      ],
      "name": "TransferComplete",
      "type": "event"
    },
    {
      "anonymous": false,
      "inputs": [
        {
          "indexed": false,
          "internalType": "address",
          "name": "owner",
          "type": "address"
        },
        {
          "indexed": false,
          "internalType": "uint256",
          "name": "tokenId",
          "type": "uint256"
        },
        {
          "indexed": false,
          "internalType": "uint256",
          "name": "nonce",
          "type": "uint256"
        },
        {
          "indexed": false,
          "internalType": "bytes",
          "name": "signature",
          "type": "bytes"
        }
      ],
      "name": "TransferInitiated",
      "type": "event"
    },
    {
      "inputs": [
        {
          "internalType": "uint256",
          "name": "tokenId",
          "type": "uint256"
        },
        {
          "internalType": "uint256",
          "name": "nonce",
          "type": "uint256"
        },
        {
          "internalType": "bytes",
          "name": "signature",
          "type": "bytes"
        }
      ],
      "name": "initiateTransfer",
      "outputs": [],
      "stateMutability": "nonpayable",
      "type": "function"
    },
    {
      "inputs": [
        {
          "internalType": "uint256",
          "name": "breedNumber",
          "type": "uint256"
        },
        {
          "internalType": "address",
          "name": "to",
          "type": "address"
        },
        {
          "internalType": "uint256",
          "name": "tokenId",
          "type": "uint256"
        },
        {
          "internalType": "uint256",
          "name": "nonce",
          "type": "uint256"
        },
        {
          "internalType": "bytes",
          "name": "signature",
          "type": "bytes"
        }
      ],
      "name": "mintTransferredToken",
      "outputs": [],
      "stateMutability": "nonpayable",
      "type": "function"
    },
    {
      "inputs": [],
      "name": "owner",
      "outputs": [
        {
          "internalType": "address",
          "name": "",
          "type": "address"
        }
      ],
      "stateMutability": "view",
      "type": "function"
    },
    {
      "inputs": [],
      "name": "renounceOwnership",
      "outputs": [],
      "stateMutability": "nonpayable",
      "type": "function"
    },
    {
      "inputs": [
        {
          "internalType": "address",
          "name": "newOwner",
          "type": "address"
        }
      ],
      "name": "transferOwnership",
      "outputs": [],
      "stateMutability": "nonpayable",
      "type": "function"
    }
  ],
  "transactionHash": "0x2a557dab3cd8b08eec0b13743acac5754c8d2850e749c231afa66921407aca15",
  "args": [
    "0x6825204FE7d83E46cF0dBB0bf0D70e254Ec21A98"
  ],
  "numDeployments": 1,
  "solcInputHash": "9f3183c8b4e32f439bfada0d3c754da0",
  "bytecode": "0x60806040523480156200001157600080fd5b5060405162001090380380620010908339818101604052810190620000379190620001df565b60016000819055506200005f62000053620000a760201b60201c565b620000af60201b60201c565b80600260006101000a81548173ffffffffffffffffffffffffffffffffffffffff021916908373ffffffffffffffffffffffffffffffffffffffff1602179055505062000211565b600033905090565b6000600160009054906101000a900473ffffffffffffffffffffffffffffffffffffffff16905081600160006101000a81548173ffffffffffffffffffffffffffffffffffffffff021916908373ffffffffffffffffffffffffffffffffffffffff1602179055508173ffffffffffffffffffffffffffffffffffffffff168173ffffffffffffffffffffffffffffffffffffffff167f8be0079c531659141344cd1fd0a4f28419497f9722a3daafe3b4186f6b6457e060405160405180910390a35050565b600080fd5b600073ffffffffffffffffffffffffffffffffffffffff82169050919050565b6000620001a7826200017a565b9050919050565b620001b9816200019a565b8114620001c557600080fd5b50565b600081519050620001d981620001ae565b92915050565b600060208284031215620001f857620001f762000175565b5b60006200020884828501620001c8565b91505092915050565b610e6f80620002216000396000f3fe608060405234801561001057600080fd5b50600436106100575760003560e01c80634b181a6e1461005c5780636633010714610078578063715018a6146100945780638da5cb5b1461009e578063f2fde38b146100bc575b600080fd5b61007660048036038101906100719190610823565b6100d8565b005b610092600480360381019061008d91906108bd565b6102e4565b005b61009c6103d0565b005b6100a66103e4565b6040516100b39190610940565b60405180910390f35b6100d660048036038101906100d1919061095b565b61040e565b005b6100e0610492565b6100e86104e2565b60003385856040516020016100ff939291906109f1565b604051602081830303815290604052805190602001209050600061012282610560565b905060006101748286868080601f016020809104026020016040519081016040528093929190818152602001838380828437600081840152601f19601f82011690508083019250505050505050610590565b90508773ffffffffffffffffffffffffffffffffffffffff168173ffffffffffffffffffffffffffffffffffffffff16146101e657816040517f666b7cba0000000000000000000000000000000000000000000000000000000081526004016101dd9190610a47565b60405180910390fd5b600260009054906101000a900473ffffffffffffffffffffffffffffffffffffffff1673ffffffffffffffffffffffffffffffffffffffff1663cf7c7c7889898c6040518463ffffffff1660e01b815260040161024593929190610a71565b602060405180830381600087803b15801561025f57600080fd5b505af1158015610273573d6000803e3d6000fd5b505050506040513d601f19601f820116820180604052508101906102979190610abd565b507ffa52d709ff7ad7d11a17ae48887a7a1d722ec1e5fea0005cbdd946bf5c50a99b33886040516102c9929190610aea565b60405180910390a15050506102dc610605565b505050505050565b6102ec610492565b6102f46104e2565b600260009054906101000a900473ffffffffffffffffffffffffffffffffffffffff1673ffffffffffffffffffffffffffffffffffffffff1663c77b6dfd33866040518363ffffffff1660e01b8152600401610351929190610aea565b600060405180830381600087803b15801561036b57600080fd5b505af115801561037f573d6000803e3d6000fd5b505050507f46953f90efdff70b21829dc36fbf3050f861df02925c52766d52ce988490745c33858585856040516103ba959493929190610b71565b60405180910390a16103ca610605565b50505050565b6103d86104e2565b6103e2600061060f565b565b6000600160009054906101000a900473ffffffffffffffffffffffffffffffffffffffff16905090565b6104166104e2565b600073ffffffffffffffffffffffffffffffffffffffff168173ffffffffffffffffffffffffffffffffffffffff161415610486576040517f08c379a000000000000000000000000000000000000000000000000000000000815260040161047d90610c42565b60405180910390fd5b61048f8161060f565b50565b600260005414156104d8576040517f08c379a00000000000000000000000000000000000000000000000000000000081526004016104cf90610cae565b60405180910390fd5b6002600081905550565b6104ea6106d5565b73ffffffffffffffffffffffffffffffffffffffff166105086103e4565b73ffffffffffffffffffffffffffffffffffffffff161461055e576040517f08c379a000000000000000000000000000000000000000000000000000000000815260040161055590610d1a565b60405180910390fd5b565b6000816040516020016105739190610db2565b604051602081830303815290604052805190602001209050919050565b60008060008061059f856106dd565b809350819450829550505050600186848484604051600081526020016040526040516105ce9493929190610df4565b6020604051602081039080840390855afa1580156105f0573d6000803e3d6000fd5b50505060206040510351935050505092915050565b6001600081905550565b6000600160009054906101000a900473ffffffffffffffffffffffffffffffffffffffff16905081600160006101000a81548173ffffffffffffffffffffffffffffffffffffffff021916908373ffffffffffffffffffffffffffffffffffffffff1602179055508173ffffffffffffffffffffffffffffffffffffffff168173ffffffffffffffffffffffffffffffffffffffff167f8be0079c531659141344cd1fd0a4f28419497f9722a3daafe3b4186f6b6457e060405160405180910390a35050565b600033905090565b600080600060418451146106f057600080fd5b60008060006020870151925060408701519150606087015160001a90508083839550955095505050509193909250565b600080fd5b600080fd5b6000819050919050565b61073d8161072a565b811461074857600080fd5b50565b60008135905061075a81610734565b92915050565b600073ffffffffffffffffffffffffffffffffffffffff82169050919050565b600061078b82610760565b9050919050565b61079b81610780565b81146107a657600080fd5b50565b6000813590506107b881610792565b92915050565b600080fd5b600080fd5b600080fd5b60008083601f8401126107e3576107e26107be565b5b8235905067ffffffffffffffff811115610800576107ff6107c3565b5b60208301915083600182028301111561081c5761081b6107c8565b5b9250929050565b60008060008060008060a087890312156108405761083f610720565b5b600061084e89828a0161074b565b965050602061085f89828a016107a9565b955050604061087089828a0161074b565b945050606061088189828a0161074b565b935050608087013567ffffffffffffffff8111156108a2576108a1610725565b5b6108ae89828a016107cd565b92509250509295509295509295565b600080600080606085870312156108d7576108d6610720565b5b60006108e58782880161074b565b94505060206108f68782880161074b565b935050604085013567ffffffffffffffff81111561091757610916610725565b5b610923878288016107cd565b925092505092959194509250565b61093a81610780565b82525050565b60006020820190506109556000830184610931565b92915050565b60006020828403121561097157610970610720565b5b600061097f848285016107a9565b91505092915050565b60008160601b9050919050565b60006109a082610988565b9050919050565b60006109b282610995565b9050919050565b6109ca6109c582610780565b6109a7565b82525050565b6000819050919050565b6109eb6109e68261072a565b6109d0565b82525050565b60006109fd82866109b9565b601482019150610a0d82856109da565b602082019150610a1d82846109da565b602082019150819050949350505050565b6000819050919050565b610a4181610a2e565b82525050565b6000602082019050610a5c6000830184610a38565b92915050565b610a6b8161072a565b82525050565b6000606082019050610a866000830186610931565b610a936020830185610a62565b610aa06040830184610a62565b949350505050565b600081519050610ab781610734565b92915050565b600060208284031215610ad357610ad2610720565b5b6000610ae184828501610aa8565b91505092915050565b6000604082019050610aff6000830185610931565b610b0c6020830184610a62565b9392505050565b600082825260208201905092915050565b82818337600083830152505050565b6000601f19601f8301169050919050565b6000610b508385610b13565b9350610b5d838584610b24565b610b6683610b33565b840190509392505050565b6000608082019050610b866000830188610931565b610b936020830187610a62565b610ba06040830186610a62565b8181036060830152610bb3818486610b44565b90509695505050505050565b600082825260208201905092915050565b7f4f776e61626c653a206e6577206f776e657220697320746865207a65726f206160008201527f6464726573730000000000000000000000000000000000000000000000000000602082015250565b6000610c2c602683610bbf565b9150610c3782610bd0565b604082019050919050565b60006020820190508181036000830152610c5b81610c1f565b9050919050565b7f5265656e7472616e637947756172643a207265656e7472616e742063616c6c00600082015250565b6000610c98601f83610bbf565b9150610ca382610c62565b602082019050919050565b60006020820190508181036000830152610cc781610c8b565b9050919050565b7f4f776e61626c653a2063616c6c6572206973206e6f7420746865206f776e6572600082015250565b6000610d04602083610bbf565b9150610d0f82610cce565b602082019050919050565b60006020820190508181036000830152610d3381610cf7565b9050919050565b600081905092915050565b7f19457468657265756d205369676e6564204d6573736167653a0a333200000000600082015250565b6000610d7b601c83610d3a565b9150610d8682610d45565b601c82019050919050565b6000819050919050565b610dac610da782610a2e565b610d91565b82525050565b6000610dbd82610d6e565b9150610dc98284610d9b565b60208201915081905092915050565b600060ff82169050919050565b610dee81610dd8565b82525050565b6000608082019050610e096000830187610a38565b610e166020830186610de5565b610e236040830185610a38565b610e306060830184610a38565b9594505050505056fea2646970667358221220bade47acdb6c7f562112d6c36502454e0f2f5fc76933b15f4be2b9891108835c64736f6c63430008090033",
  "devdoc": {
    "kind": "dev",
    "methods": {
      "owner()": {
        "details": "Returns the address of the current owner."
      },
      "renounceOwnership()": {
        "details": "Leaves the contract without owner. It will not be possible to call `onlyOwner` functions. Can only be called by the current owner. NOTE: Renouncing ownership will leave the contract without an owner, thereby disabling any functionality that is only available to the owner."
      },
      "transferOwnership(address)": {
        "details": "Transfers ownership of the contract to a new account (`newOwner`). Can only be called by the current owner."
      }
    },
    "version": 1
  },
  "userdoc": {
    "kind": "user",
    "methods": {},
    "version": 1
  },
  "storageLayout": {
    "storage": [
      {
        "astId": 123,
        "contract": "contracts/NftBridge.sol:NftBridge",
        "label": "_status",
        "offset": 0,
        "slot": "0",
        "type": "t_uint256"
      },
      {
        "astId": 7,
        "contract": "contracts/NftBridge.sol:NftBridge",
        "label": "_owner",
        "offset": 0,
        "slot": "1",
        "type": "t_address"
      },
      {
        "astId": 371,
        "contract": "contracts/NftBridge.sol:NftBridge",
        "label": "s_NftToken",
        "offset": 0,
        "slot": "2",
        "type": "t_contract(INftBridge)355"
      }
    ],
    "types": {
      "t_address": {
        "encoding": "inplace",
        "label": "address",
        "numberOfBytes": "20"
      },
      "t_contract(INftBridge)355": {
        "encoding": "inplace",
        "label": "contract INftBridge",
        "numberOfBytes": "20"
      },
      "t_uint256": {
        "encoding": "inplace",
        "label": "uint256",
        "numberOfBytes": "32"
      }
    }
  }
}